{
  "transactions": [
    {
      "hash": "0x09fe146e7960402626c219be866f528c972dfa9312564be79b9b91b0650e180b",
      "transactionType": "CALL",
      "contractName": null,
      "contractAddress": "0xebad57d79c39b14b8f473e4081166d4ed2606d0e",
      "function": "execute(address,uint256,bytes,bytes32,bytes32)",
      "arguments": [
        "0x3bb3BE2c698ad9dF6498F6030931A7D9977A5e2c",
        "0",
        "0xfad58b2100000000000000000000000036da95043dc9f1bb745d3ab148ee1575cd038250",
        "0x0000000000000000000000000000000000000000000000000000000000000000",
        "0xdf48fda58fa53b79edd4a61ddb37d1e181a8ddd3045e3667f2a467eec33b7f84"
      ],
      "transaction": {
        "from": "0xb3c8ec7c00ca69e2b456382c46711153f80854e0",
        "to": "0xebad57d79c39b14b8f473e4081166d4ed2606d0e",
        "gas": "0x15de3",
        "value": "0x0",
        "input": "0x134008d30000000000000000000000003bb3be2c698ad9df6498f6030931a7d9977a5e2c000000000000000000000000000000000000000000000000000000000000000000000000000000000000000000000000000000000000000000000000000000a00000000000000000000000000000000000000000000000000000000000000000df48fda58fa53b79edd4a61ddb37d1e181a8ddd3045e3667f2a467eec33b7f840000000000000000000000000000000000000000000000000000000000000024fad58b2100000000000000000000000036da95043dc9f1bb745d3ab148ee1575cd03825000000000000000000000000000000000000000000000000000000000",
        "nonce": "0x1af",
        "chainId": "0x14a34"
      },
      "additionalContracts": [],
      "isFixedGasLimit": false
    }
  ],
  "receipts": [
    {
      "status": "0x1",
      "cumulativeGasUsed": "0x1e2b55",
      "logs": [
        {
          "address": "0x3bb3be2c698ad9df6498f6030931a7d9977a5e2c",
          "topics": [
            "0x437b6df9f652fc50590976e60d013461e282b738cea255f83d9b5de52466b747",
            "0x0000000000000000000000000000000000000000000000000000000000000000",
            "0x00000000000000000000000036da95043dc9f1bb745d3ab148ee1575cd038250"
          ],
          "data": "0x",
          "blockHash": "0x0000000000000000000000000000000000000000000000000000000000000000",
          "blockNumber": "0x251a90a",
          "blockTimestamp": "0x69b6b0f4",
          "transactionHash": "0x09fe146e7960402626c219be866f528c972dfa9312564be79b9b91b0650e180b",
          "transactionIndex": "0x7",
          "logIndex": "0x5c",
          "removed": false
        },
        {
          "address": "0xebad57d79c39b14b8f473e4081166d4ed2606d0e",
          "topics": [
            "0xc2617efa69bab66782fa219543714338489c4e9e178271560a91b82c3f612b58",
            "0x526571763325b57e9b4449277efb000301317d0ca53648e9bd9fdeb37264665c",
            "0x0000000000000000000000000000000000000000000000000000000000000000"
          ],
          "data": "0x0000000000000000000000003bb3be2c698ad9df6498f6030931a7d9977a5e2c000000000000000000000000000000000000000000000000000000000000000000000000000000000000000000000000000000000000000000000000000000600000000000000000000000000000000000000000000000000000000000000024fad58b2100000000000000000000000036da95043dc9f1bb745d3ab148ee1575cd03825000000000000000000000000000000000000000000000000000000000",
          "blockHash": "0x0000000000000000000000000000000000000000000000000000000000000000",
          "blockNumber": "0x251a90a",
          "blockTimestamp": "0x69b6b0f4",
          "transactionHash": "0x09fe146e7960402626c219be866f528c972dfa9312564be79b9b91b0650e180b",
          "transactionIndex": "0x7",
          "logIndex": "0x5d",
          "removed": false
        }
      ],
      "logsBloom": "0x00000000000000000000000000000000000000000000000000000000000000000000000000010002000000000000000000000000000800000200000000000000000010000000000000000080000000000000000000000000000000000000002000000000020400000000000000000800000000000000000000400000000004000008000000000000000000000000040000000000000000000000800000000000400000000000000000000000000000000000000000000000010000000000000000000000000020080000000000000000000000000000000000000000000020000000000000200000000000000000000000000000000000000000000000000000",
      "type": "0x2",
      "transactionHash": "0x09fe146e7960402626c219be866f528c972dfa9312564be79b9b91b0650e180b",
      "transactionIndex": "0x7",
      "blockHash": "0x0000000000000000000000000000000000000000000000000000000000000000",
      "blockNumber": "0x251a90a",
      "gasUsed": "0xfd50",
      "effectiveGasPrice": "0x5b8d80",
      "blobGasUsed": "0x5288",
      "from": "0xb3c8ec7c00ca69e2b456382c46711153f80854e0",
      "to": "0xebad57d79c39b14b8f473e4081166d4ed2606d0e",
      "contractAddress": null,
      "daFootprintGasScalar": "0x8b",
      "l1BaseFeeScalar": "0x44d",
      "l1BlobBaseFee": "0x1",
      "l1BlobBaseFeeScalar": "0xa118b",
      "l1Fee": "0x53",
      "l1GasPrice": "0xa",
      "l1GasUsed": "0x985"
    }
  ],
  "libraries": [],
  "pending": [],
  "returns": {},
  "timestamp": 1773580531735,
  "chain": 84532,
  "commit": "8f51024"
}