{
  "transactions": [
    {
      "hash": "0xf5de8ca7e61121febbbb76fece8d608bbbb2137e62ef13770f060759a20607e1",
      "transactionType": "CALL",
      "contractName": null,
      "contractAddress": "0xbbbdb407e8cde61b0dc907fecc9ad09db43dc9e5",
      "function": "execute(address,uint256,bytes,bytes32,bytes32)",
      "arguments": [
        "0xDFce0c2BC54AC8E24662B97B69631eF3D6f5178e",
        "0",
        "0xfad58b21000000000000000000000000eb92e7ccbf2fc2b2578096709862ecd39c1f2d31",
        "0x0000000000000000000000000000000000000000000000000000000000000000",
        "0xdf48fda58fa53b79edd4a61ddb37d1e181a8ddd3045e3667f2a467eec33b7f84"
      ],
      "transaction": {
        "from": "0xb3c8ec7c00ca69e2b456382c46711153f80854e0",
        "to": "0xbbbdb407e8cde61b0dc907fecc9ad09db43dc9e5",
        "gas": "0x15de3",
        "value": "0x0",
        "input": "0x134008d3000000000000000000000000dfce0c2bc54ac8e24662b97b69631ef3d6f5178e000000000000000000000000000000000000000000000000000000000000000000000000000000000000000000000000000000000000000000000000000000a00000000000000000000000000000000000000000000000000000000000000000df48fda58fa53b79edd4a61ddb37d1e181a8ddd3045e3667f2a467eec33b7f840000000000000000000000000000000000000000000000000000000000000024fad58b21000000000000000000000000eb92e7ccbf2fc2b2578096709862ecd39c1f2d3100000000000000000000000000000000000000000000000000000000",
        "nonce": "0x17d",
        "chainId": "0x14a34"
      },
      "additionalContracts": [],
      "isFixedGasLimit": false
    }
  ],
  "receipts": [
    {
      "status": "0x1",
      "cumulativeGasUsed": "0x4d57e1",
      "logs": [
        {
          "address": "0xdfce0c2bc54ac8e24662b97b69631ef3d6f5178e",
          "topics": [
            "0x437b6df9f652fc50590976e60d013461e282b738cea255f83d9b5de52466b747",
            "0x0000000000000000000000000000000000000000000000000000000000000000",
            "0x000000000000000000000000eb92e7ccbf2fc2b2578096709862ecd39c1f2d31"
          ],
          "data": "0x",
          "blockHash": "0x0000000000000000000000000000000000000000000000000000000000000000",
          "blockNumber": "0x24d18e3",
          "blockTimestamp": "0x69ad90a6",
          "transactionHash": "0xf5de8ca7e61121febbbb76fece8d608bbbb2137e62ef13770f060759a20607e1",
          "transactionIndex": "0x11",
          "logIndex": "0x4f",
          "removed": false
        },
        {
          "address": "0xbbbdb407e8cde61b0dc907fecc9ad09db43dc9e5",
          "topics": [
            "0xc2617efa69bab66782fa219543714338489c4e9e178271560a91b82c3f612b58",
            "0x8244aac68b25fc00a1e321fd4709450cd4ece4001d426cab579daa0280fc0991",
            "0x0000000000000000000000000000000000000000000000000000000000000000"
          ],
          "data": "0x000000000000000000000000dfce0c2bc54ac8e24662b97b69631ef3d6f5178e000000000000000000000000000000000000000000000000000000000000000000000000000000000000000000000000000000000000000000000000000000600000000000000000000000000000000000000000000000000000000000000024fad58b21000000000000000000000000eb92e7ccbf2fc2b2578096709862ecd39c1f2d3100000000000000000000000000000000000000000000000000000000",
          "blockHash": "0x0000000000000000000000000000000000000000000000000000000000000000",
          "blockNumber": "0x24d18e3",
          "blockTimestamp": "0x69ad90a6",
          "transactionHash": "0xf5de8ca7e61121febbbb76fece8d608bbbb2137e62ef13770f060759a20607e1",
          "transactionIndex": "0x11",
          "logIndex": "0x50",
          "removed": false
        }
      ],
      "logsBloom": "0x00080000001000000000000000000000000000000000000000000000000000000000000000000000000000000000000000000000000800000200000000000000000000000000004000000080000000000000000000000000000000000000002200000000020040000004000000000800000000000000000001000000000000000000200000000000000000000000000000000000002000000000000000000000000000000000000000000000000000000000000000000000000000000800000000000040000020080000000000000000000000000000000000000000000020000000000000000000000000000000000000000000000000000000001000000000",
      "type": "0x2",
      "transactionHash": "0xf5de8ca7e61121febbbb76fece8d608bbbb2137e62ef13770f060759a20607e1",
      "transactionIndex": "0x11",
      "blockHash": "0x0000000000000000000000000000000000000000000000000000000000000000",
      "blockNumber": "0x24d18e3",
      "gasUsed": "0xfd50",
      "effectiveGasPrice": "0x5b8d80",
      "blobGasUsed": "0x5288",
      "from": "0xb3c8ec7c00ca69e2b456382c46711153f80854e0",
      "to": "0xbbbdb407e8cde61b0dc907fecc9ad09db43dc9e5",
      "contractAddress": null,
      "daFootprintGasScalar": "0x8b",
      "l1BaseFeeScalar": "0x44d",
      "l1BlobBaseFee": "0x1",
      "l1BlobBaseFeeScalar": "0xa118b",
      "l1Fee": "0x288",
      "l1GasPrice": "0x1f",
      "l1GasUsed": "0x985"
    }
  ],
  "libraries": [],
  "pending": [],
  "returns": {},
  "timestamp": 1772982437465,
  "chain": 84532,
  "commit": "19016c7"
}